{
  "address": "0xCf7Ed3AccA5a467e9e704C703E8D87F634fB0Fc9",
  "abi": [
    {
      "inputs": [
        {
          "internalType": "address",
          "name": "vrfCoordinatorV2",
          "type": "address"
        },
        {
          "internalType": "bytes32",
          "name": "gasLane",
          "type": "bytes32"
        },
        {
          "internalType": "uint64",
          "name": "subscriptionId",
          "type": "uint64"
        },
        {
          "internalType": "uint32",
          "name": "callbackGasLimit",
          "type": "uint32"
        },
        {
          "internalType": "uint256",
          "name": "entranceFee",
          "type": "uint256"
        },
        {
          "internalType": "uint256",
          "name": "interval",
          "type": "uint256"
        }
      ],
      "stateMutability": "nonpayable",
      "type": "constructor"
    },
    {
      "inputs": [
        {
          "internalType": "address",
          "name": "have",
          "type": "address"
        },
        {
          "internalType": "address",
          "name": "want",
          "type": "address"
        }
      ],
      "name": "OnlyCoordinatorCanFulfill",
      "type": "error"
    },
    {
      "inputs": [],
      "name": "Raffle_TransferFailed",
      "type": "error"
    },
    {
      "inputs": [],
      "name": "Raffle__InsufficientEntranceFee",
      "type": "error"
    },
    {
      "inputs": [],
      "name": "Raffle__NotOpen",
      "type": "error"
    },
    {
      "inputs": [
        {
          "internalType": "uint256",
          "name": "contractBal",
          "type": "uint256"
        },
        {
          "internalType": "uint256",
          "name": "numPlayers",
          "type": "uint256"
        },
        {
          "internalType": "uint256",
          "name": "raffleState",
          "type": "uint256"
        }
      ],
      "name": "Raffle__UpkeepNotNeeded",
      "type": "error"
    },
    {
      "anonymous": false,
      "inputs": [
        {
          "indexed": true,
          "internalType": "address",
          "name": "player",
          "type": "address"
        }
      ],
      "name": "RaffleEnter",
      "type": "event"
    },
    {
      "anonymous": false,
      "inputs": [
        {
          "indexed": true,
          "internalType": "address",
          "name": "winner",
          "type": "address"
        }
      ],
      "name": "RecentWinner",
      "type": "event"
    },
    {
      "anonymous": false,
      "inputs": [
        {
          "indexed": true,
          "internalType": "uint256",
          "name": "requestId",
          "type": "uint256"
        }
      ],
      "name": "RequestedRaffleWinner",
      "type": "event"
    },
    {
      "stateMutability": "payable",
      "type": "fallback"
    },
    {
      "inputs": [
        {
          "internalType": "bytes",
          "name": "",
          "type": "bytes"
        }
      ],
      "name": "checkUpkeep",
      "outputs": [
        {
          "internalType": "bool",
          "name": "upkeepNeeded",
          "type": "bool"
        },
        {
          "internalType": "bytes",
          "name": "",
          "type": "bytes"
        }
      ],
      "stateMutability": "view",
      "type": "function"
    },
    {
      "inputs": [],
      "name": "enterLottery",
      "outputs": [],
      "stateMutability": "payable",
      "type": "function"
    },
    {
      "inputs": [],
      "name": "getEntranceFee",
      "outputs": [
        {
          "internalType": "uint256",
          "name": "",
          "type": "uint256"
        }
      ],
      "stateMutability": "view",
      "type": "function"
    },
    {
      "inputs": [],
      "name": "getInterval",
      "outputs": [
        {
          "internalType": "uint256",
          "name": "",
          "type": "uint256"
        }
      ],
      "stateMutability": "view",
      "type": "function"
    },
    {
      "inputs": [],
      "name": "getLastTimeStamp",
      "outputs": [
        {
          "internalType": "uint256",
          "name": "",
          "type": "uint256"
        }
      ],
      "stateMutability": "view",
      "type": "function"
    },
    {
      "inputs": [],
      "name": "getNumPlayers",
      "outputs": [
        {
          "internalType": "uint256",
          "name": "",
          "type": "uint256"
        }
      ],
      "stateMutability": "view",
      "type": "function"
    },
    {
      "inputs": [],
      "name": "getNumWords",
      "outputs": [
        {
          "internalType": "uint256",
          "name": "",
          "type": "uint256"
        }
      ],
      "stateMutability": "pure",
      "type": "function"
    },
    {
      "inputs": [
        {
          "internalType": "uint256",
          "name": "playerIndex",
          "type": "uint256"
        }
      ],
      "name": "getPlayer",
      "outputs": [
        {
          "internalType": "address",
          "name": "",
          "type": "address"
        }
      ],
      "stateMutability": "view",
      "type": "function"
    },
    {
      "inputs": [],
      "name": "getRaffleState",
      "outputs": [
        {
          "internalType": "enum Raffle.RaffleState",
          "name": "",
          "type": "uint8"
        }
      ],
      "stateMutability": "view",
      "type": "function"
    },
    {
      "inputs": [],
      "name": "getRecentWinner",
      "outputs": [
        {
          "internalType": "address",
          "name": "",
          "type": "address"
        }
      ],
      "stateMutability": "view",
      "type": "function"
    },
    {
      "inputs": [],
      "name": "getRequestConfirmations",
      "outputs": [
        {
          "internalType": "uint256",
          "name": "",
          "type": "uint256"
        }
      ],
      "stateMutability": "pure",
      "type": "function"
    },
    {
      "inputs": [
        {
          "internalType": "bytes",
          "name": "",
          "type": "bytes"
        }
      ],
      "name": "performUpkeep",
      "outputs": [],
      "stateMutability": "nonpayable",
      "type": "function"
    },
    {
      "inputs": [
        {
          "internalType": "uint256",
          "name": "requestId",
          "type": "uint256"
        },
        {
          "internalType": "uint256[]",
          "name": "randomWords",
          "type": "uint256[]"
        }
      ],
      "name": "rawFulfillRandomWords",
      "outputs": [],
      "stateMutability": "nonpayable",
      "type": "function"
    },
    {
      "stateMutability": "payable",
      "type": "receive"
    }
  ],
  "transactionHash": "0xa643763905f42664ec743fb9b52ca91f1ea25e699cb1decddb7132511eae6dd8",
  "args": [
    "0x5FbDB2315678afecb367f032d93F642f64180aa3",
    "0xd89b2bf150e3b9e13446986e571fb9cab24b13cea0a43ea20a6049a85cc807cc",
    "1",
    "500000",
    "10000000000000000",
    "30"
  ],
  "numDeployments": 1,
  "solcInputHash": "e705e5ff7f6d966a2caa22b0f859f8e8",
  "bytecode": "0x6101606040523480156200001257600080fd5b506040516200185d3803806200185d833981810160405281019062000038919062000294565b858073ffffffffffffffffffffffffffffffffffffffff1660808173ffffffffffffffffffffffffffffffffffffffff1681525050508160a081815250508573ffffffffffffffffffffffffffffffffffffffff1660c08173ffffffffffffffffffffffffffffffffffffffff16815250508460e081815250508367ffffffffffffffff166101008167ffffffffffffffff16815250508263ffffffff166101208163ffffffff16815250506000600160146101000a81548160ff021916908360018111156200010d576200010c62000330565b5b0217905550426002819055508061014081815250505050505050506200035f565b600080fd5b600073ffffffffffffffffffffffffffffffffffffffff82169050919050565b6000620001608262000133565b9050919050565b620001728162000153565b81146200017e57600080fd5b50565b600081519050620001928162000167565b92915050565b6000819050919050565b620001ad8162000198565b8114620001b957600080fd5b50565b600081519050620001cd81620001a2565b92915050565b600067ffffffffffffffff82169050919050565b620001f281620001d3565b8114620001fe57600080fd5b50565b6000815190506200021281620001e7565b92915050565b600063ffffffff82169050919050565b620002338162000218565b81146200023f57600080fd5b50565b600081519050620002538162000228565b92915050565b6000819050919050565b6200026e8162000259565b81146200027a57600080fd5b50565b6000815190506200028e8162000263565b92915050565b60008060008060008060c08789031215620002b457620002b36200012e565b5b6000620002c489828a0162000181565b9650506020620002d789828a01620001bc565b9550506040620002ea89828a0162000201565b9450506060620002fd89828a0162000242565b93505060806200031089828a016200027d565b92505060a06200032389828a016200027d565b9150509295509295509295565b7f4e487b7100000000000000000000000000000000000000000000000000000000600052602160045260246000fd5b60805160a05160c05160e05161010051610120516101405161148e620003cf60003960008181610691015261073a0152600061053401526000610511015260006104f0015260006104b4015260008181610302015261076001526000818161033f0152610393015261148e6000f3fe6080604052600436106100c65760003560e01c806355c9e9261161007f57806391ad27b41161005957806391ad27b414610261578063c1af57851461028c578063c1c244e814610296578063e55ae4e8146102c1576100cd565b806355c9e926146101cd5780635f1b0fd8146101f85780636e04ff0d14610223576100cd565b806309bc33a7146100cf578063115cbaf5146100fa5780631fe543e3146101255780634585e33b1461014e578063473f1ddc1461017757806353a2c19a146101a2576100cd565b366100cd57005b005b3480156100db57600080fd5b506100e46102fe565b6040516100f19190610c0f565b60405180910390f35b34801561010657600080fd5b5061010f610326565b60405161011c9190610ca1565b60405180910390f35b34801561013157600080fd5b5061014c60048036038101906101479190610e55565b61033d565b005b34801561015a57600080fd5b5061017560048036038101906101709190610f0c565b6103fd565b005b34801561018357600080fd5b5061018c6105fc565b6040516101999190610f9a565b60405180910390f35b3480156101ae57600080fd5b506101b7610626565b6040516101c49190610c0f565b60405180910390f35b3480156101d957600080fd5b506101e2610635565b6040516101ef9190610c0f565b60405180910390f35b34801561020457600080fd5b5061020d610641565b60405161021a9190610c0f565b60405180910390f35b34801561022f57600080fd5b5061024a6004803603810190610245919061106a565b61064e565b604051610258929190611156565b60405180910390f35b34801561026d57600080fd5b50610276610736565b6040516102839190610c0f565b60405180910390f35b61029461075e565b005b3480156102a257600080fd5b506102ab6108cd565b6040516102b89190610c0f565b60405180910390f35b3480156102cd57600080fd5b506102e860048036038101906102e39190611186565b6108d7565b6040516102f59190610f9a565b60405180910390f35b60007f0000000000000000000000000000000000000000000000000000000000000000905090565b6000600160149054906101000a900460ff16905090565b7f000000000000000000000000000000000000000000000000000000000000000073ffffffffffffffffffffffffffffffffffffffff163373ffffffffffffffffffffffffffffffffffffffff16146103ef57337f00000000000000000000000000000000000000000000000000000000000000006040517f1cf993f40000000000000000000000000000000000000000000000000000000081526004016103e69291906111b3565b60405180910390fd5b6103f9828261091e565b5050565b60006104176040518060200160405280600081525061064e565b509050806104865747600080549050600160149054906101000a900460ff16600181111561044857610447610c2a565b5b6040517f584327aa00000000000000000000000000000000000000000000000000000000815260040161047d939291906111dc565b60405180910390fd5b60018060146101000a81548160ff021916908360018111156104ab576104aa610c2a565b5b021790555060007f000000000000000000000000000000000000000000000000000000000000000073ffffffffffffffffffffffffffffffffffffffff16635d3b1d307f00000000000000000000000000000000000000000000000000000000000000007f000000000000000000000000000000000000000000000000000000000000000060037f000000000000000000000000000000000000000000000000000000000000000060016040518663ffffffff1660e01b815260040161057595949392919061128b565b602060405180830381600087803b15801561058f57600080fd5b505af11580156105a3573d6000803e3d6000fd5b505050506040513d601f19601f820116820180604052508101906105c791906112f3565b9050807fcd6e45c8998311cab7e9d4385596cac867e20a0587194b954fa3a731c93ce78b60405160405180910390a250505050565b6000600160009054906101000a900473ffffffffffffffffffffffffffffffffffffffff16905090565b6000600163ffffffff16905090565b60008080549050905090565b6000600361ffff16905090565b600060606000600160149054906101000a900460ff16600181111561067657610675610c2a565b5b6000600181111561068a57610689610c2a565b5b14905060007f0000000000000000000000000000000000000000000000000000000000000000600254426106be919061134f565b119050600080600080549050119050600080471190508380156106de5750825b80156106e75750815b80156106f05750805b9550856040518060400160405280600381526020017f30783000000000000000000000000000000000000000000000000000000000008152509550955050505050915091565b60007f0000000000000000000000000000000000000000000000000000000000000000905090565b7f00000000000000000000000000000000000000000000000000000000000000003410156107b8576040517fc93d651600000000000000000000000000000000000000000000000000000000815260040160405180910390fd5b600060018111156107cc576107cb610c2a565b5b600160149054906101000a900460ff1660018111156107ee576107ed610c2a565b5b14610825576040517f1425571c00000000000000000000000000000000000000000000000000000000815260040160405180910390fd5b6000339080600181540180825580915050600190039060005260206000200160009091909190916101000a81548173ffffffffffffffffffffffffffffffffffffffff021916908373ffffffffffffffffffffffffffffffffffffffff1602179055503373ffffffffffffffffffffffffffffffffffffffff167f0805e1d667bddb8a95f0f09880cf94f403fb596ce79928d9f29b74203ba284d460405160405180910390a2565b6000600254905090565b60008082815481106108ec576108eb611383565b5b9060005260206000200160009054906101000a900473ffffffffffffffffffffffffffffffffffffffff169050919050565b600080805490508260008151811061093957610938611383565b5b602002602001015161094b91906113e1565b9050600080828154811061096257610961611383565b5b9060005260206000200160009054906101000a900473ffffffffffffffffffffffffffffffffffffffff16905080600160006101000a81548173ffffffffffffffffffffffffffffffffffffffff021916908373ffffffffffffffffffffffffffffffffffffffff1602179055506000600160146101000a81548160ff021916908360018111156109f6576109f5610c2a565b5b0217905550600067ffffffffffffffff811115610a1657610a15610d12565b5b604051908082528060200260200182016040528015610a445781602001602082028036833780820191505090505b5060009080519060200190610a5a929190610b4f565b504260028190555060008173ffffffffffffffffffffffffffffffffffffffff1647604051610a8890611443565b60006040518083038185875af1925050503d8060008114610ac5576040519150601f19603f3d011682016040523d82523d6000602084013e610aca565b606091505b5050905080610b05576040517fba31c4f300000000000000000000000000000000000000000000000000000000815260040160405180910390fd5b8173ffffffffffffffffffffffffffffffffffffffff167f71945ad93dd7daff7e0de5e333eff60625118c1eddc0ebb3931a656d1c05e06f60405160405180910390a25050505050565b828054828255906000526020600020908101928215610bc8579160200282015b82811115610bc75782518260006101000a81548173ffffffffffffffffffffffffffffffffffffffff021916908373ffffffffffffffffffffffffffffffffffffffff16021790555091602001919060010190610b6f565b5b509050610bd59190610bd9565b5090565b5b80821115610bf2576000816000905550600101610bda565b5090565b6000819050919050565b610c0981610bf6565b82525050565b6000602082019050610c246000830184610c00565b92915050565b7f4e487b7100000000000000000000000000000000000000000000000000000000600052602160045260246000fd5b60028110610c6a57610c69610c2a565b5b50565b6000819050610c7b82610c59565b919050565b6000610c8b82610c6d565b9050919050565b610c9b81610c80565b82525050565b6000602082019050610cb66000830184610c92565b92915050565b6000604051905090565b600080fd5b600080fd5b610cd981610bf6565b8114610ce457600080fd5b50565b600081359050610cf681610cd0565b92915050565b600080fd5b6000601f19601f8301169050919050565b7f4e487b7100000000000000000000000000000000000000000000000000000000600052604160045260246000fd5b610d4a82610d01565b810181811067ffffffffffffffff82111715610d6957610d68610d12565b5b80604052505050565b6000610d7c610cbc565b9050610d888282610d41565b919050565b600067ffffffffffffffff821115610da857610da7610d12565b5b602082029050602081019050919050565b600080fd5b6000610dd1610dcc84610d8d565b610d72565b90508083825260208201905060208402830185811115610df457610df3610db9565b5b835b81811015610e1d5780610e098882610ce7565b845260208401935050602081019050610df6565b5050509392505050565b600082601f830112610e3c57610e3b610cfc565b5b8135610e4c848260208601610dbe565b91505092915050565b60008060408385031215610e6c57610e6b610cc6565b5b6000610e7a85828601610ce7565b925050602083013567ffffffffffffffff811115610e9b57610e9a610ccb565b5b610ea785828601610e27565b9150509250929050565b600080fd5b60008083601f840112610ecc57610ecb610cfc565b5b8235905067ffffffffffffffff811115610ee957610ee8610eb1565b5b602083019150836001820283011115610f0557610f04610db9565b5b9250929050565b60008060208385031215610f2357610f22610cc6565b5b600083013567ffffffffffffffff811115610f4157610f40610ccb565b5b610f4d85828601610eb6565b92509250509250929050565b600073ffffffffffffffffffffffffffffffffffffffff82169050919050565b6000610f8482610f59565b9050919050565b610f9481610f79565b82525050565b6000602082019050610faf6000830184610f8b565b92915050565b600080fd5b600067ffffffffffffffff821115610fd557610fd4610d12565b5b610fde82610d01565b9050602081019050919050565b82818337600083830152505050565b600061100d61100884610fba565b610d72565b90508281526020810184848401111561102957611028610fb5565b5b611034848285610feb565b509392505050565b600082601f83011261105157611050610cfc565b5b8135611061848260208601610ffa565b91505092915050565b6000602082840312156110805761107f610cc6565b5b600082013567ffffffffffffffff81111561109e5761109d610ccb565b5b6110aa8482850161103c565b91505092915050565b60008115159050919050565b6110c8816110b3565b82525050565b600081519050919050565b600082825260208201905092915050565b60005b838110156111085780820151818401526020810190506110ed565b83811115611117576000848401525b50505050565b6000611128826110ce565b61113281856110d9565b93506111428185602086016110ea565b61114b81610d01565b840191505092915050565b600060408201905061116b60008301856110bf565b818103602083015261117d818461111d565b90509392505050565b60006020828403121561119c5761119b610cc6565b5b60006111aa84828501610ce7565b91505092915050565b60006040820190506111c86000830185610f8b565b6111d56020830184610f8b565b9392505050565b60006060820190506111f16000830186610c00565b6111fe6020830185610c00565b61120b6040830184610c00565b949350505050565b6000819050919050565b61122681611213565b82525050565b600067ffffffffffffffff82169050919050565b6112498161122c565b82525050565b600061ffff82169050919050565b6112668161124f565b82525050565b600063ffffffff82169050919050565b6112858161126c565b82525050565b600060a0820190506112a0600083018861121d565b6112ad6020830187611240565b6112ba604083018661125d565b6112c7606083018561127c565b6112d4608083018461127c565b9695505050505050565b6000815190506112ed81610cd0565b92915050565b60006020828403121561130957611308610cc6565b5b6000611317848285016112de565b91505092915050565b7f4e487b7100000000000000000000000000000000000000000000000000000000600052601160045260246000fd5b600061135a82610bf6565b915061136583610bf6565b92508282101561137857611377611320565b5b828203905092915050565b7f4e487b7100000000000000000000000000000000000000000000000000000000600052603260045260246000fd5b7f4e487b7100000000000000000000000000000000000000000000000000000000600052601260045260246000fd5b60006113ec82610bf6565b91506113f783610bf6565b925082611407576114066113b2565b5b828206905092915050565b600081905092915050565b50565b600061142d600083611412565b91506114388261141d565b600082019050919050565b600061144e82611420565b915081905091905056fea2646970667358221220be5c8ec916a6e46e259df376d751c57ba4d65a7bbacf64c973442562434ed78764736f6c63430008090033",
  "devdoc": {
    "author": "Terry Tan",
    "details": "This contract implements Chainlink VRF and Chainlink keepers",
    "kind": "dev",
    "methods": {
      "checkUpkeep(bytes)": {
        "details": "This is the function that the Chainlink keeper nodes call when they look for the `upkeepNeeded` to return true. The following conditions have to be true in order to return an upkeepNeeded of value true 1. Time interval should have passed 2. Lottery should have at least 1 player, and have some ETH 3. Subscription ??? is funded with LINK 4. Lottery should be in an \"open\" state, meaning that when we're picking a winner, the lottery is \"calculating\", \"closed\", etc"
      },
      "performUpkeep(bytes)": {
        "details": "Once `checkUpkeep` is returning `true`, this function is called and it kicks off a Chainlink VRF call to get a random winner."
      }
    },
    "title": "A sample Raffle contract",
    "version": 1
  },
  "userdoc": {
    "events": {
      "RaffleEnter(address)": {
        "notice": "Events "
      }
    },
    "kind": "user",
    "methods": {
      "constructor": {
        "notice": "Functions "
      },
      "getEntranceFee()": {
        "notice": "View/Pure functions "
      }
    },
    "notice": "This contract creates an untemperable decentralized smart contract",
    "version": 1
  },
  "storageLayout": {
    "storage": [
      {
        "astId": 221,
        "contract": "contracts/Raffle.sol:Raffle",
        "label": "s_players",
        "offset": 0,
        "slot": "0",
        "type": "t_array(t_address_payable)dyn_storage"
      },
      {
        "astId": 223,
        "contract": "contracts/Raffle.sol:Raffle",
        "label": "s_recentWinner",
        "offset": 0,
        "slot": "1",
        "type": "t_address_payable"
      },
      {
        "astId": 226,
        "contract": "contracts/Raffle.sol:Raffle",
        "label": "s_raffleState",
        "offset": 20,
        "slot": "1",
        "type": "t_enum(RaffleState)199"
      },
      {
        "astId": 228,
        "contract": "contracts/Raffle.sol:Raffle",
        "label": "s_lastTimeStamp",
        "offset": 0,
        "slot": "2",
        "type": "t_uint256"
      }
    ],
    "types": {
      "t_address_payable": {
        "encoding": "inplace",
        "label": "address payable",
        "numberOfBytes": "20"
      },
      "t_array(t_address_payable)dyn_storage": {
        "base": "t_address_payable",
        "encoding": "dynamic_array",
        "label": "address payable[]",
        "numberOfBytes": "32"
      },
      "t_enum(RaffleState)199": {
        "encoding": "inplace",
        "label": "enum Raffle.RaffleState",
        "numberOfBytes": "1"
      },
      "t_uint256": {
        "encoding": "inplace",
        "label": "uint256",
        "numberOfBytes": "32"
      }
    }
  }
}